{
  "contractName": "VotingStore",
  "abi": [
    {
      "constant": true,
      "inputs": [],
      "name": "votingIndex",
      "outputs": [
        {
          "name": "",
          "type": "uint256"
        }
      ],
      "payable": false,
      "stateMutability": "view",
      "type": "function"
    },
    {
      "inputs": [],
      "payable": false,
      "stateMutability": "nonpayable",
      "type": "constructor"
    },
    {
      "constant": false,
      "inputs": [
        {
          "name": "_name",
          "type": "string"
        },
        {
          "name": "_descLink",
          "type": "string"
        },
        {
          "name": "_category",
          "type": "string"
        },
        {
          "name": "_startTime",
          "type": "uint256"
        },
        {
          "name": "_endTime",
          "type": "uint256"
        },
        {
          "name": "_optionList",
          "type": "bytes32[]"
        }
      ],
      "name": "registerVoting",
      "outputs": [],
      "payable": false,
      "stateMutability": "nonpayable",
      "type": "function"
    },
    {
      "constant": true,
      "inputs": [
        {
          "name": "_votingIndex",
          "type": "uint256"
        }
      ],
      "name": "getVoting",
      "outputs": [
        {
          "name": "",
          "type": "uint256"
        },
        {
          "name": "",
          "type": "string"
        },
        {
          "name": "",
          "type": "string"
        },
        {
          "name": "",
          "type": "string"
        },
        {
          "name": "",
          "type": "uint256"
        },
        {
          "name": "",
          "type": "uint256"
        },
        {
          "name": "",
          "type": "bytes32[]"
        }
      ],
      "payable": false,
      "stateMutability": "view",
      "type": "function"
    },
    {
      "constant": false,
      "inputs": [
        {
          "name": "_votingIndex",
          "type": "uint256"
        },
        {
          "name": "_option",
          "type": "bytes32"
        }
      ],
      "name": "voteToOption",
      "outputs": [
        {
          "name": "",
          "type": "bool"
        }
      ],
      "payable": false,
      "stateMutability": "nonpayable",
      "type": "function"
    },
    {
      "constant": false,
      "inputs": [
        {
          "name": "_votingIndex",
          "type": "uint256"
        },
        {
          "name": "option",
          "type": "bytes32"
        }
      ],
      "name": "findIndexOfOption",
      "outputs": [
        {
          "name": "",
          "type": "uint256"
        }
      ],
      "payable": false,
      "stateMutability": "nonpayable",
      "type": "function"
    }
  ],
  "bytecode": "0x6060604052341561000f57600080fd5b60008081905550611487806100256000396000f30060606040526004361061006d576000357c0100000000000000000000000000000000000000000000000000000000900463ffffffff1680633afc7282146100725780634c542d7d146102435780635685c3591461028b5780635dd523fa146102cf5780637a811658146102f8575b600080fd5b341561007d57600080fd5b610093600480803590602001909190505061042d565b604051808881526020018060200180602001806020018781526020018681526020018060200185810385528b818151815260200191508051906020019080838360005b838110156100f15780820151818401526020810190506100d6565b50505050905090810190601f16801561011e5780820380516001836020036101000a031916815260200191505b5085810384528a818151815260200191508051906020019080838360005b8381101561015757808201518184015260208101905061013c565b50505050905090810190601f1680156101845780820380516001836020036101000a031916815260200191505b50858103835289818151815260200191508051906020019080838360005b838110156101bd5780820151818401526020810190506101a2565b50505050905090810190601f1680156101ea5780820380516001836020036101000a031916815260200191505b50858103825286818151815260200191508051906020019060200280838360005b8381101561022657808201518184015260208101905061020b565b505050509050019b50505050505050505050505060405180910390f35b341561024e57600080fd5b6102716004808035906020019091908035600019169060200190919050506107eb565b604051808215151515815260200191505060405180910390f35b341561029657600080fd5b6102b9600480803590602001909190803560001916906020019091905050610c9d565b6040518082815260200191505060405180910390f35b34156102da57600080fd5b6102e261106f565b6040518082815260200191505060405180910390f35b341561030357600080fd5b61042b600480803590602001908201803590602001908080601f0160208091040260200160405190810160405280939291908181526020018383808284378201915050505050509190803590602001908201803590602001908080601f0160208091040260200160405190810160405280939291908181526020018383808284378201915050505050509190803590602001908201803590602001908080601f0160208091040260200160405190810160405280939291908181526020018383808284378201915050505050509190803590602001909190803590602001909190803590602001908201803590602001908080602002602001604051908101604052809392919081815260200183836020028082843782019150505050505091905050611075565b005b600061043761127a565b61043f61127a565b61044761127a565b60008061045261128e565b61045a6112a2565b60016000600260008c815260200190815260200160002060009054906101000a900473ffffffffffffffffffffffffffffffffffffffff1673ffffffffffffffffffffffffffffffffffffffff1673ffffffffffffffffffffffffffffffffffffffff16815260200190815260200160002060008a8152602001908152602001600020610100604051908101604052908160008201548152602001600182018054600181600116156101000203166002900480601f01602080910402602001604051908101604052809291908181526020018280546001816001161561010002031660029004801561058d5780601f106105625761010080835404028352916020019161058d565b820191906000526020600020905b81548152906001019060200180831161057057829003601f168201915b50505050508152602001600282018054600181600116156101000203166002900480601f01602080910402602001604051908101604052809291908181526020018280546001816001161561010002031660029004801561062f5780601f106106045761010080835404028352916020019161062f565b820191906000526020600020905b81548152906001019060200180831161061257829003601f168201915b50505050508152602001600382018054600181600116156101000203166002900480601f0160208091040260200160405190810160405280929190818152602001828054600181600116156101000203166002900480156106d15780601f106106a6576101008083540402835291602001916106d1565b820191906000526020600020905b8154815290600101906020018083116106b457829003601f168201915b5050505050815260200160048201548152602001600582015481526020016006820180548060200260200160405190810160405280929190818152602001828054801561074157602002820191906000526020600020905b81546000191681526020019060010190808311610729575b505050505081526020016007820160009054906101000a900473ffffffffffffffffffffffffffffffffffffffff1673ffffffffffffffffffffffffffffffffffffffff1673ffffffffffffffffffffffffffffffffffffffff16815250509050806000015181602001518260400151836060015184608001518560a001518660c00151859550849450839350809050975097509750975097509750975050919395979092949650565b6000806000600160006002600088815260200190815260200160002060009054906101000a900473ffffffffffffffffffffffffffffffffffffffff1673ffffffffffffffffffffffffffffffffffffffff1673ffffffffffffffffffffffffffffffffffffffff1681526020019081526020016000206000868152602001908152602001600020915060008260080160003373ffffffffffffffffffffffffffffffffffffffff1673ffffffffffffffffffffffffffffffffffffffff16815260200190815260200160002060000160009054906101000a900473ffffffffffffffffffffffffffffffffffffffff1673ffffffffffffffffffffffffffffffffffffffff161415156108fe57600080fd5b60408051908101604052803373ffffffffffffffffffffffffffffffffffffffff1681526020018560001916815250600160006002600089815260200190815260200160002060009054906101000a900473ffffffffffffffffffffffffffffffffffffffff1673ffffffffffffffffffffffffffffffffffffffff1673ffffffffffffffffffffffffffffffffffffffff168152602001908152602001600020600087815260200190815260200160002060080160003373ffffffffffffffffffffffffffffffffffffffff1673ffffffffffffffffffffffffffffffffffffffff16815260200190815260200160002060008201518160000160006101000a81548173ffffffffffffffffffffffffffffffffffffffff021916908373ffffffffffffffffffffffffffffffffffffffff1602179055506020820151816001019060001916905590505081600501544211151515610a5d57600080fd5b610a678585610c9d565b90507fffffffffffffffffffffffffffffffffffffffffffffffffffffffffffffffff8114151515610a9857600080fd5b60408051908101604052803373ffffffffffffffffffffffffffffffffffffffff1681526020018560001916815250600160006002600089815260200190815260200160002060009054906101000a900473ffffffffffffffffffffffffffffffffffffffff1673ffffffffffffffffffffffffffffffffffffffff1673ffffffffffffffffffffffffffffffffffffffff168152602001908152602001600020600087815260200190815260200160002060080160003373ffffffffffffffffffffffffffffffffffffffff1673ffffffffffffffffffffffffffffffffffffffff16815260200190815260200160002060008201518160000160006101000a81548173ffffffffffffffffffffffffffffffffffffffff021916908373ffffffffffffffffffffffffffffffffffffffff1602179055506020820151816001019060001916905590505060018060006002600089815260200190815260200160002060009054906101000a900473ffffffffffffffffffffffffffffffffffffffff1673ffffffffffffffffffffffffffffffffffffffff1673ffffffffffffffffffffffffffffffffffffffff1681526020019081526020016000206000878152602001908152602001600020600901600086600019166000191681526020019081526020016000206000828254019250508190555060019250505092915050565b6000610ca76112a2565b6000600160006002600088815260200190815260200160002060009054906101000a900473ffffffffffffffffffffffffffffffffffffffff1673ffffffffffffffffffffffffffffffffffffffff1673ffffffffffffffffffffffffffffffffffffffff1681526020019081526020016000206000868152602001908152602001600020610100604051908101604052908160008201548152602001600182018054600181600116156101000203166002900480601f016020809104026020016040519081016040528092919081815260200182805460018160011615610100020316600290048015610ddc5780601f10610db157610100808354040283529160200191610ddc565b820191906000526020600020905b815481529060010190602001808311610dbf57829003601f168201915b50505050508152602001600282018054600181600116156101000203166002900480601f016020809104026020016040519081016040528092919081815260200182805460018160011615610100020316600290048015610e7e5780601f10610e5357610100808354040283529160200191610e7e565b820191906000526020600020905b815481529060010190602001808311610e6157829003601f168201915b50505050508152602001600382018054600181600116156101000203166002900480601f016020809104026020016040519081016040528092919081815260200182805460018160011615610100020316600290048015610f205780601f10610ef557610100808354040283529160200191610f20565b820191906000526020600020905b815481529060010190602001808311610f0357829003601f168201915b50505050508152602001600482015481526020016005820154815260200160068201805480602002602001604051908101604052809291908181526020018280548015610f9057602002820191906000526020600020905b81546000191681526020019060010190808311610f78575b505050505081526020016007820160009054906101000a900473ffffffffffffffffffffffffffffffffffffffff1673ffffffffffffffffffffffffffffffffffffffff1673ffffffffffffffffffffffffffffffffffffffff16815250509150600090505b8160c00151518110156110435783600019168260c001518281518110151561101a57fe5b9060200190602002015160001916141561103657809250611067565b8080600101915050610ff6565b7fffffffffffffffffffffffffffffffffffffffffffffffffffffffffffffffff92505b505092915050565b60005481565b61107d6112a2565b828410151561108b57600080fd5b600160008082825401925050819055506101006040519081016040528060005481526020018881526020018781526020018681526020018581526020018481526020018381526020013373ffffffffffffffffffffffffffffffffffffffff16815250905080600160003373ffffffffffffffffffffffffffffffffffffffff1673ffffffffffffffffffffffffffffffffffffffff168152602001908152602001600020600080548152602001908152602001600020600082015181600001556020820151816001019080519060200190611168929190611316565b506040820151816002019080519060200190611185929190611316565b5060608201518160030190805190602001906111a2929190611316565b506080820151816004015560a0820151816005015560c08201518160060190805190602001906111d3929190611396565b5060e08201518160070160006101000a81548173ffffffffffffffffffffffffffffffffffffffff021916908373ffffffffffffffffffffffffffffffffffffffff16021790555090505033600260008054815260200190815260200160002060006101000a81548173ffffffffffffffffffffffffffffffffffffffff021916908373ffffffffffffffffffffffffffffffffffffffff16021790555050505050505050565b602060405190810160405280600081525090565b602060405190810160405280600081525090565b61010060405190810160405280600081526020016112be6113e9565b81526020016112cb6113e9565b81526020016112d86113e9565b815260200160008152602001600081526020016112f36113fd565b8152602001600073ffffffffffffffffffffffffffffffffffffffff1681525090565b828054600181600116156101000203166002900490600052602060002090601f016020900481019282601f1061135757805160ff1916838001178555611385565b82800160010185558215611385579182015b82811115611384578251825591602001919060010190611369565b5b5090506113929190611411565b5090565b8280548282559060005260206000209081019282156113d8579160200282015b828111156113d75782518290600019169055916020019190600101906113b6565b5b5090506113e59190611436565b5090565b602060405190810160405280600081525090565b602060405190810160405280600081525090565b61143391905b8082111561142f576000816000905550600101611417565b5090565b90565b61145891905b8082111561145457600081600090555060010161143c565b5090565b905600a165627a7a72305820e1927a1ccee0d53a36dafb08251a902beaa2838b044bc6cfdfac15ae1d2ab16b0029",
  "source": "pragma solidity ^0.4.13;\n\ncontract VotingStore {\n\n  uint public votingIndex;\n  \n  // struct Option {\n  //   uint id;\n  //   string name;\n  //   string descLink;\n  //   string imageLink;\n  //   string descLink;\n  // }\n\n  struct Voting {\n    uint id;\n    string name;\n    string descLink;\n    string category;\n    uint startTime;\n    uint endTime;\n    // mapping (uint => Option) optionList;\n    bytes32[] optionList;\n    address owner;\n    mapping (address => Voter) votes;\n    mapping (bytes32 => uint) summaryVotes;\n  }\n\n  // We use the struct datatype to store the voter information.\n  struct Voter {\n    address voterAddress; // The address of the voter\n    bytes32 option;\n    // uint tokensBought;    // The total no. of tokens this voter owns\n    // uint[] tokensUsedPerCandidate; // Array to keep track of votes per candidate.\n    /* We have an array of candidates initialized below.\n     Every time this voter votes with her tokens, the value at that\n     index is incremented. Example, if candidateList array declared\n     below has [\"Rama\", \"Nick\", \"Jose\"] and this\n     voter votes 10 tokens to Nick, the tokensUsedPerCandidate[1]\n     will be incremented by 10.\n     */\n  }\n\n mapping (address => mapping(uint => Voting)) stores;\n mapping (uint => address) votingIndexInStore;\n\n function VotingStore() public {\n  votingIndex = 0;\n }\n\n function registerVoting(string _name, string _descLink, string _category, uint _startTime, uint _endTime, bytes32[] _optionList) public {\n  require (_startTime < _endTime);\n  votingIndex += 1;\n  Voting memory voting = Voting(votingIndex, _name, _descLink, _category, _startTime, _endTime, _optionList, msg.sender);\n\n  stores[msg.sender][votingIndex] = voting;\n  votingIndexInStore[votingIndex] = msg.sender;\n }\n\n function getVoting(uint _votingIndex) view public returns (uint, string, string, string, uint, uint, bytes32[]) {\n   Voting memory voting = stores[votingIndexInStore[_votingIndex]][_votingIndex];\n   return (voting.id, voting.name, voting.descLink, voting.category, voting.startTime, voting.endTime, voting.optionList);\n }\n\n function voteToOption(uint _votingIndex, bytes32 _option) public returns (bool) {\n   Voting storage voting = stores[votingIndexInStore[_votingIndex]][_votingIndex];\n   require (voting.votes[msg.sender].voterAddress == 0);\n   stores[votingIndexInStore[_votingIndex]][_votingIndex].votes[msg.sender] = Voter(msg.sender, _option);\n   require (now <= voting.endTime);\n   uint index = findIndexOfOption(_votingIndex, _option);\n   require(index != uint(-1));\n   stores[votingIndexInStore[_votingIndex]][_votingIndex].votes[msg.sender] = Voter(msg.sender, _option);\n   stores[votingIndexInStore[_votingIndex]][_votingIndex].summaryVotes[_option] += 1;\n   return true;\n }\n\n function findIndexOfOption(uint _votingIndex, bytes32 option) public returns (uint) {\n   Voting memory voting = stores[votingIndexInStore[_votingIndex]][_votingIndex];\n    for( uint index = 0; index < voting.optionList.length; index++ ) {\n      if (voting.optionList[index] == option) {\n        return index;\n      }\n    }\n    return uint(-1);\n }\n\n}",
  "sourcePath": "/Users/giga/projects/vobi-voting/contracts/VotingStore.sol",
  "compiler": {
    "name": "solc",
    "version": "0.4.19+commit.c4cbbb05.Emscripten.clang"
  },
  "schemaVersion": "1.0.1",
  "updatedAt": "2018-02-13T07:55:14.948Z"
}